{
  "_format": "hh-sol-artifact-1",
  "contractName": "FinTokenAsset",
  "sourceName": "contracts/FinTokenAsset.sol",
  "abi": [
    {
      "inputs": [],
      "stateMutability": "nonpayable",
      "type": "constructor"
    },
    {
      "anonymous": false,
      "inputs": [
        {
          "indexed": true,
          "internalType": "address",
          "name": "owner",
          "type": "address"
        },
        {
          "indexed": true,
          "internalType": "address",
          "name": "approved",
          "type": "address"
        },
        {
          "indexed": true,
          "internalType": "uint256",
          "name": "tokenId",
          "type": "uint256"
        }
      ],
      "name": "Approval",
      "type": "event"
    },
    {
      "anonymous": false,
      "inputs": [
        {
          "indexed": true,
          "internalType": "address",
          "name": "owner",
          "type": "address"
        },
        {
          "indexed": true,
          "internalType": "address",
          "name": "operator",
          "type": "address"
        },
        {
          "indexed": false,
          "internalType": "bool",
          "name": "approved",
          "type": "bool"
        }
      ],
      "name": "ApprovalForAll",
      "type": "event"
    },
    {
      "anonymous": false,
      "inputs": [
        {
          "indexed": true,
          "internalType": "uint256",
          "name": "tokenId",
          "type": "uint256"
        },
        {
          "indexed": false,
          "internalType": "string",
          "name": "name",
          "type": "string"
        },
        {
          "indexed": false,
          "internalType": "enum FinTokenAsset.AssetType",
          "name": "assetType",
          "type": "uint8"
        },
        {
          "indexed": false,
          "internalType": "uint256",
          "name": "value",
          "type": "uint256"
        },
        {
          "indexed": false,
          "internalType": "address",
          "name": "owner",
          "type": "address"
        }
      ],
      "name": "AssetCreated",
      "type": "event"
    },
    {
      "anonymous": false,
      "inputs": [
        {
          "indexed": true,
          "internalType": "uint256",
          "name": "tokenId",
          "type": "uint256"
        },
        {
          "indexed": true,
          "internalType": "address",
          "name": "from",
          "type": "address"
        },
        {
          "indexed": true,
          "internalType": "address",
          "name": "to",
          "type": "address"
        }
      ],
      "name": "AssetTransferred",
      "type": "event"
    },
    {
      "anonymous": false,
      "inputs": [
        {
          "indexed": true,
          "internalType": "uint256",
          "name": "tokenId",
          "type": "uint256"
        },
        {
          "indexed": false,
          "internalType": "uint256",
          "name": "oldValue",
          "type": "uint256"
        },
        {
          "indexed": false,
          "internalType": "uint256",
          "name": "newValue",
          "type": "uint256"
        }
      ],
      "name": "AssetValueUpdated",
      "type": "event"
    },
    {
      "anonymous": false,
      "inputs": [
        {
          "indexed": false,
          "internalType": "uint256",
          "name": "_fromTokenId",
          "type": "uint256"
        },
        {
          "indexed": false,
          "internalType": "uint256",
          "name": "_toTokenId",
          "type": "uint256"
        }
      ],
      "name": "BatchMetadataUpdate",
      "type": "event"
    },
    {
      "anonymous": false,
      "inputs": [
        {
          "indexed": false,
          "internalType": "uint256",
          "name": "_tokenId",
          "type": "uint256"
        }
      ],
      "name": "MetadataUpdate",
      "type": "event"
    },
    {
      "anonymous": false,
      "inputs": [
        {
          "indexed": true,
          "internalType": "address",
          "name": "previousOwner",
          "type": "address"
        },
        {
          "indexed": true,
          "internalType": "address",
          "name": "newOwner",
          "type": "address"
        }
      ],
      "name": "OwnershipTransferred",
      "type": "event"
    },
    {
      "anonymous": false,
      "inputs": [
        {
          "indexed": true,
          "internalType": "address",
          "name": "from",
          "type": "address"
        },
        {
          "indexed": true,
          "internalType": "address",
          "name": "to",
          "type": "address"
        },
        {
          "indexed": true,
          "internalType": "uint256",
          "name": "tokenId",
          "type": "uint256"
        }
      ],
      "name": "Transfer",
      "type": "event"
    },
    {
      "inputs": [
        {
          "internalType": "address",
          "name": "to",
          "type": "address"
        },
        {
          "internalType": "uint256",
          "name": "tokenId",
          "type": "uint256"
        }
      ],
      "name": "approve",
      "outputs": [],
      "stateMutability": "nonpayable",
      "type": "function"
    },
    {
      "inputs": [
        {
          "internalType": "address",
          "name": "owner",
          "type": "address"
        }
      ],
      "name": "balanceOf",
      "outputs": [
        {
          "internalType": "uint256",
          "name": "",
          "type": "uint256"
        }
      ],
      "stateMutability": "view",
      "type": "function"
    },
    {
      "inputs": [
        {
          "internalType": "uint256",
          "name": "tokenId",
          "type": "uint256"
        }
      ],
      "name": "burnAsset",
      "outputs": [],
      "stateMutability": "nonpayable",
      "type": "function"
    },
    {
      "inputs": [
        {
          "internalType": "uint256",
          "name": "tokenId",
          "type": "uint256"
        }
      ],
      "name": "getApproved",
      "outputs": [
        {
          "internalType": "address",
          "name": "",
          "type": "address"
        }
      ],
      "stateMutability": "view",
      "type": "function"
    },
    {
      "inputs": [
        {
          "internalType": "uint256",
          "name": "tokenId",
          "type": "uint256"
        }
      ],
      "name": "getAsset",
      "outputs": [
        {
          "components": [
            {
              "internalType": "uint256",
              "name": "tokenId",
              "type": "uint256"
            },
            {
              "internalType": "string",
              "name": "name",
              "type": "string"
            },
            {
              "internalType": "enum FinTokenAsset.AssetType",
              "name": "assetType",
              "type": "uint8"
            },
            {
              "internalType": "string",
              "name": "description",
              "type": "string"
            },
            {
              "internalType": "uint256",
              "name": "value",
              "type": "uint256"
            },
            {
              "internalType": "address",
              "name": "owner",
              "type": "address"
            },
            {
              "internalType": "uint256",
              "name": "createdAt",
              "type": "uint256"
            },
            {
              "internalType": "uint256",
              "name": "updatedAt",
              "type": "uint256"
            }
          ],
          "internalType": "struct FinTokenAsset.Asset",
          "name": "",
          "type": "tuple"
        }
      ],
      "stateMutability": "view",
      "type": "function"
    },
    {
      "inputs": [
        {
          "internalType": "address",
          "name": "owner",
          "type": "address"
        },
        {
          "internalType": "address",
          "name": "operator",
          "type": "address"
        }
      ],
      "name": "isApprovedForAll",
      "outputs": [
        {
          "internalType": "bool",
          "name": "",
          "type": "bool"
        }
      ],
      "stateMutability": "view",
      "type": "function"
    },
    {
      "inputs": [
        {
          "internalType": "address",
          "name": "to",
          "type": "address"
        },
        {
          "internalType": "string",
          "name": "name",
          "type": "string"
        },
        {
          "internalType": "enum FinTokenAsset.AssetType",
          "name": "assetType",
          "type": "uint8"
        },
        {
          "internalType": "string",
          "name": "description",
          "type": "string"
        },
        {
          "internalType": "uint256",
          "name": "value",
          "type": "uint256"
        },
        {
          "internalType": "string",
          "name": "tokenURI",
          "type": "string"
        }
      ],
      "name": "mintAsset",
      "outputs": [
        {
          "internalType": "uint256",
          "name": "",
          "type": "uint256"
        }
      ],
      "stateMutability": "nonpayable",
      "type": "function"
    },
    {
      "inputs": [],
      "name": "name",
      "outputs": [
        {
          "internalType": "string",
          "name": "",
          "type": "string"
        }
      ],
      "stateMutability": "view",
      "type": "function"
    },
    {
      "inputs": [],
      "name": "owner",
      "outputs": [
        {
          "internalType": "address",
          "name": "",
          "type": "address"
        }
      ],
      "stateMutability": "view",
      "type": "function"
    },
    {
      "inputs": [
        {
          "internalType": "uint256",
          "name": "tokenId",
          "type": "uint256"
        }
      ],
      "name": "ownerOf",
      "outputs": [
        {
          "internalType": "address",
          "name": "",
          "type": "address"
        }
      ],
      "stateMutability": "view",
      "type": "function"
    },
    {
      "inputs": [],
      "name": "renounceOwnership",
      "outputs": [],
      "stateMutability": "nonpayable",
      "type": "function"
    },
    {
      "inputs": [
        {
          "internalType": "address",
          "name": "from",
          "type": "address"
        },
        {
          "internalType": "address",
          "name": "to",
          "type": "address"
        },
        {
          "internalType": "uint256",
          "name": "tokenId",
          "type": "uint256"
        }
      ],
      "name": "safeTransferFrom",
      "outputs": [],
      "stateMutability": "nonpayable",
      "type": "function"
    },
    {
      "inputs": [
        {
          "internalType": "address",
          "name": "from",
          "type": "address"
        },
        {
          "internalType": "address",
          "name": "to",
          "type": "address"
        },
        {
          "internalType": "uint256",
          "name": "tokenId",
          "type": "uint256"
        },
        {
          "internalType": "bytes",
          "name": "data",
          "type": "bytes"
        }
      ],
      "name": "safeTransferFrom",
      "outputs": [],
      "stateMutability": "nonpayable",
      "type": "function"
    },
    {
      "inputs": [
        {
          "internalType": "address",
          "name": "operator",
          "type": "address"
        },
        {
          "internalType": "bool",
          "name": "approved",
          "type": "bool"
        }
      ],
      "name": "setApprovalForAll",
      "outputs": [],
      "stateMutability": "nonpayable",
      "type": "function"
    },
    {
      "inputs": [
        {
          "internalType": "bytes4",
          "name": "interfaceId",
          "type": "bytes4"
        }
      ],
      "name": "supportsInterface",
      "outputs": [
        {
          "internalType": "bool",
          "name": "",
          "type": "bool"
        }
      ],
      "stateMutability": "view",
      "type": "function"
    },
    {
      "inputs": [],
      "name": "symbol",
      "outputs": [
        {
          "internalType": "string",
          "name": "",
          "type": "string"
        }
      ],
      "stateMutability": "view",
      "type": "function"
    },
    {
      "inputs": [
        {
          "internalType": "uint256",
          "name": "tokenId",
          "type": "uint256"
        }
      ],
      "name": "tokenURI",
      "outputs": [
        {
          "internalType": "string",
          "name": "",
          "type": "string"
        }
      ],
      "stateMutability": "view",
      "type": "function"
    },
    {
      "inputs": [
        {
          "internalType": "address",
          "name": "from",
          "type": "address"
        },
        {
          "internalType": "address",
          "name": "to",
          "type": "address"
        },
        {
          "internalType": "uint256",
          "name": "tokenId",
          "type": "uint256"
        }
      ],
      "name": "transferFrom",
      "outputs": [],
      "stateMutability": "nonpayable",
      "type": "function"
    },
    {
      "inputs": [
        {
          "internalType": "address",
          "name": "newOwner",
          "type": "address"
        }
      ],
      "name": "transferOwnership",
      "outputs": [],
      "stateMutability": "nonpayable",
      "type": "function"
    },
    {
      "inputs": [
        {
          "internalType": "uint256",
          "name": "tokenId",
          "type": "uint256"
        },
        {
          "internalType": "uint256",
          "name": "newValue",
          "type": "uint256"
        }
      ],
      "name": "updateAssetValue",
      "outputs": [],
      "stateMutability": "nonpayable",
      "type": "function"
    }
  ],
  "bytecode": "0x60806040523480156200001157600080fd5b506040518060400160405280600e81526020016d119a5b951bdad95b88105cdcd95d60921b815250604051806040016040528060048152602001631192539560e21b815250816000908162000067919062000194565b50600162000076828262000194565b505050620000936200008d6200009960201b60201c565b6200009d565b62000260565b3390565b600780546001600160a01b038381166001600160a01b0319831681179093556040519116919082907f8be0079c531659141344cd1fd0a4f28419497f9722a3daafe3b4186f6b6457e090600090a35050565b634e487b7160e01b600052604160045260246000fd5b600181811c908216806200011a57607f821691505b6020821081036200013b57634e487b7160e01b600052602260045260246000fd5b50919050565b601f8211156200018f57600081815260208120601f850160051c810160208610156200016a5750805b601f850160051c820191505b818110156200018b5782815560010162000176565b5050505b505050565b81516001600160401b03811115620001b057620001b0620000ef565b620001c881620001c1845462000105565b8462000141565b602080601f831160018114620002005760008415620001e75750858301515b600019600386901b1c1916600185901b1785556200018b565b600085815260208120601f198616915b82811015620002315788860151825594840194600190910190840162000210565b5085821015620002505787850151600019600388901b60f8161c191681555b5050505050600190811b01905550565b6120d680620002706000396000f3fe608060405234801561001057600080fd5b506004361061012c5760003560e01c80638da5cb5b116100ad578063c87b56dd11610071578063c87b56dd14610275578063d57374fc14610288578063e985e9c51461029b578063eac8f5b8146102d7578063f2fde38b146102f757600080fd5b80638da5cb5b146102235780638f08d44d1461023457806395d89b4114610247578063a22cb4651461024f578063b88d4fde1461026257600080fd5b806342842e0e116100f457806342842e0e146101c157806360c4dce3146101d45780636352211e146101e757806370a08231146101fa578063715018a61461021b57600080fd5b806301ffc9a71461013157806306fdde0314610159578063081812fc1461016e578063095ea7b31461019957806323b872dd146101ae575b600080fd5b61014461013f366004611904565b61030a565b60405190151581526020015b60405180910390f35b610161610335565b6040516101509190611971565b61018161017c366004611984565b6103c7565b6040516001600160a01b039091168152602001610150565b6101ac6101a73660046119b9565b6103ee565b005b6101ac6101bc3660046119e3565b610508565b6101ac6101cf3660046119e3565b610539565b6101ac6101e2366004611a1f565b610554565b6101816101f5366004611984565b6105e5565b61020d610208366004611a41565b610645565b604051908152602001610150565b6101ac6106cb565b6007546001600160a01b0316610181565b6101ac610242366004611984565b6106df565b6101616107ef565b6101ac61025d366004611a5c565b6107fe565b6101ac610270366004611b24565b61080d565b610161610283366004611984565b610845565b61020d610296366004611bc0565b610955565b6101446102a9366004611c7a565b6001600160a01b03918216600090815260056020908152604080832093909416825291909152205460ff1690565b6102ea6102e5366004611984565b610ae9565b6040516101509190611ce5565b6101ac610305366004611a41565b610d17565b60006001600160e01b03198216632483248360e11b148061032f575061032f82610d90565b92915050565b60606000805461034490611d7b565b80601f016020809104026020016040519081016040528092919081815260200182805461037090611d7b565b80156103bd5780601f10610392576101008083540402835291602001916103bd565b820191906000526020600020905b8154815290600101906020018083116103a057829003601f168201915b5050505050905090565b60006103d282610de0565b506000908152600460205260409020546001600160a01b031690565b60006103f9826105e5565b9050806001600160a01b0316836001600160a01b03160361046b5760405162461bcd60e51b815260206004820152602160248201527f4552433732313a20617070726f76616c20746f2063757272656e74206f776e656044820152603960f91b60648201526084015b60405180910390fd5b336001600160a01b0382161480610487575061048781336102a9565b6104f95760405162461bcd60e51b815260206004820152603d60248201527f4552433732313a20617070726f76652063616c6c6572206973206e6f7420746f60448201527f6b656e206f776e6572206f7220617070726f76656420666f7220616c6c0000006064820152608401610462565b6105038383610e30565b505050565b6105123382610e9e565b61052e5760405162461bcd60e51b815260040161046290611db5565b610503838383610f1c565b6105038383836040518060200160405280600081525061080d565b61055c610f94565b61056582610fee565b6105815760405162461bcd60e51b815260040161046290611e02565b600082815260096020908152604091829020600481018054908590554260079092019190915582518181529182018490529184917f151b3a78795c707eff48f31606a09e1213aff636c47901555df889c1c2b34515910160405180910390a2505050565b6000818152600260205260408120546001600160a01b03168061032f5760405162461bcd60e51b8152602060048201526018602482015277115490cdcc8c4e881a5b9d985b1a59081d1bdad95b88125160421b6044820152606401610462565b60006001600160a01b0382166106af5760405162461bcd60e51b815260206004820152602960248201527f4552433732313a2061646472657373207a65726f206973206e6f7420612076616044820152683634b21037bbb732b960b91b6064820152608401610462565b506001600160a01b031660009081526003602052604090205490565b6106d3610f94565b6106dd600061100b565b565b6106e7610f94565b6106f081610fee565b61070c5760405162461bcd60e51b815260040161046290611e02565b33610716826105e5565b6001600160a01b031614806107445750336107396007546001600160a01b031690565b6001600160a01b0316145b6107815760405162461bcd60e51b815260206004820152600e60248201526d139bdd08185d5d1a1bdc9a5e995960921b6044820152606401610462565b61078a8161105d565b6000818152600960205260408120818155906107a960018301826118a0565b60028201805460ff191690556107c36003830160006118a0565b506000600482018190556005820180546001600160a01b03191690556006820181905560079091015550565b60606001805461034490611d7b565b61080933838361109d565b5050565b6108173383610e9e565b6108335760405162461bcd60e51b815260040161046290611db5565b61083f8484848461116b565b50505050565b606061085082610de0565b6000828152600660205260408120805461086990611d7b565b80601f016020809104026020016040519081016040528092919081815260200182805461089590611d7b565b80156108e25780601f106108b7576101008083540402835291602001916108e2565b820191906000526020600020905b8154815290600101906020018083116108c557829003601f168201915b50505050509050600061090060408051602081019091526000815290565b90508051600003610912575092915050565b81511561094457808260405160200161092c929190611e30565b60405160208183030381529060405292505050919050565b61094d8461119e565b949350505050565b600061095f610f94565b61096d600880546001019055565b600061097860085490565b90506109848882611212565b61098e818461137f565b60006040518061010001604052808381526020018981526020018860058111156109ba576109ba611cad565b81526020018781526020018681526020018a6001600160a01b031681526020014281526020014281525090508060096000848152602001908152602001600020600082015181600001556020820151816001019081610a199190611ead565b50604082015160028201805460ff19166001836005811115610a3d57610a3d611cad565b021790555060608201516003820190610a569082611ead565b506080820151600482015560a08201516005820180546001600160a01b0319166001600160a01b0390921691909117905560c0820151600682015560e09091015160079091015560405182907f3cf7e313cdff467cf9528cc9757627190756706f33507b8cc24d14046c08313390610ad5908b908b908a908f90611f6d565b60405180910390a250979650505050505050565b610b3a604080516101008101825260008082526060602083015290918201908152602001606081526020016000815260200160006001600160a01b0316815260200160008152602001600081525090565b610b4382610fee565b610b5f5760405162461bcd60e51b815260040161046290611e02565b600960008381526020019081526020016000206040518061010001604052908160008201548152602001600182018054610b9890611d7b565b80601f0160208091040260200160405190810160405280929190818152602001828054610bc490611d7b565b8015610c115780601f10610be657610100808354040283529160200191610c11565b820191906000526020600020905b815481529060010190602001808311610bf457829003601f168201915b5050509183525050600282015460209091019060ff166005811115610c3857610c38611cad565b6005811115610c4957610c49611cad565b8152602001600382018054610c5d90611d7b565b80601f0160208091040260200160405190810160405280929190818152602001828054610c8990611d7b565b8015610cd65780601f10610cab57610100808354040283529160200191610cd6565b820191906000526020600020905b815481529060010190602001808311610cb957829003601f168201915b50505091835250506004820154602082015260058201546001600160a01b031660408201526006820154606082015260079091015460809091015292915050565b610d1f610f94565b6001600160a01b038116610d845760405162461bcd60e51b815260206004820152602660248201527f4f776e61626c653a206e6577206f776e657220697320746865207a65726f206160448201526564647265737360d01b6064820152608401610462565b610d8d8161100b565b50565b60006001600160e01b031982166380ac58cd60e01b1480610dc157506001600160e01b03198216635b5e139f60e01b145b8061032f57506301ffc9a760e01b6001600160e01b031983161461032f565b610de981610fee565b610d8d5760405162461bcd60e51b8152602060048201526018602482015277115490cdcc8c4e881a5b9d985b1a59081d1bdad95b88125160421b6044820152606401610462565b600081815260046020526040902080546001600160a01b0319166001600160a01b0384169081179091558190610e65826105e5565b6001600160a01b03167f8c5be1e5ebec7d5bd14f71427d1e84f3dd0314c0f7b2291e5b200ac8c7c3b92560405160405180910390a45050565b600080610eaa836105e5565b9050806001600160a01b0316846001600160a01b03161480610ef157506001600160a01b0380821660009081526005602090815260408083209388168352929052205460ff165b8061094d5750836001600160a01b0316610f0a846103c7565b6001600160a01b031614949350505050565b610f2783838361143b565b6000818152600960205260408082206005810180546001600160a01b0319166001600160a01b0387811691821790925542600790930192909255915190929186169184917fa993eb3a10693085bc7afc1de0202310fbd5992b9e51edd263b198f62f20cdae9190a4505050565b6007546001600160a01b031633146106dd5760405162461bcd60e51b815260206004820181905260248201527f4f776e61626c653a2063616c6c6572206973206e6f7420746865206f776e65726044820152606401610462565b6000908152600260205260409020546001600160a01b0316151590565b600780546001600160a01b038381166001600160a01b0319831681179093556040519116919082907f8be0079c531659141344cd1fd0a4f28419497f9722a3daafe3b4186f6b6457e090600090a35050565b6110668161159f565b6000818152600660205260409020805461107f90611d7b565b159050610d8d576000818152600660205260408120610d8d916118a0565b816001600160a01b0316836001600160a01b0316036110fe5760405162461bcd60e51b815260206004820152601960248201527f4552433732313a20617070726f766520746f2063616c6c6572000000000000006044820152606401610462565b6001600160a01b03838116600081815260056020908152604080832094871680845294825291829020805460ff191686151590811790915591519182527f17307eab39ab6107e8899845ad3d59bd9653f200f220920489ca2b5937696c31910160405180910390a3505050565b611176848484610f1c565b61118284848484611634565b61083f5760405162461bcd60e51b815260040161046290611faf565b60606111a982610de0565b60006111c060408051602081019091526000815290565b905060008151116111e0576040518060200160405280600081525061120b565b806111ea84611735565b6040516020016111fb929190611e30565b6040516020818303038152906040525b9392505050565b6001600160a01b0382166112685760405162461bcd60e51b815260206004820181905260248201527f4552433732313a206d696e7420746f20746865207a65726f20616464726573736044820152606401610462565b61127181610fee565b156112be5760405162461bcd60e51b815260206004820152601c60248201527f4552433732313a20746f6b656e20616c7265616479206d696e746564000000006044820152606401610462565b6112c781610fee565b156113145760405162461bcd60e51b815260206004820152601c60248201527f4552433732313a20746f6b656e20616c7265616479206d696e746564000000006044820152606401610462565b6001600160a01b038216600081815260036020908152604080832080546001019055848352600290915280822080546001600160a01b0319168417905551839291907fddf252ad1be2c89b69c2b068fc378daa952ba7f163c4a11628f55a4df523b3ef908290a45050565b61138882610fee565b6113eb5760405162461bcd60e51b815260206004820152602e60248201527f45524337323155524953746f726167653a2055524920736574206f66206e6f6e60448201526d32bc34b9ba32b73a103a37b5b2b760911b6064820152608401610462565b60008281526006602052604090206114038282611ead565b506040518281527ff8e1a15aba9398e019f0b49df1a4fde98ee17ae345cb5f6b5e2c27f5033e8ce79060200160405180910390a15050565b826001600160a01b031661144e826105e5565b6001600160a01b0316146114745760405162461bcd60e51b815260040161046290612001565b6001600160a01b0382166114d65760405162461bcd60e51b8152602060048201526024808201527f4552433732313a207472616e7366657220746f20746865207a65726f206164646044820152637265737360e01b6064820152608401610462565b826001600160a01b03166114e9826105e5565b6001600160a01b03161461150f5760405162461bcd60e51b815260040161046290612001565b600081815260046020908152604080832080546001600160a01b03199081169091556001600160a01b0387811680865260038552838620805460001901905590871680865283862080546001019055868652600290945282852080549092168417909155905184937fddf252ad1be2c89b69c2b068fc378daa952ba7f163c4a11628f55a4df523b3ef91a4505050565b60006115aa826105e5565b90506115b5826105e5565b600083815260046020908152604080832080546001600160a01b03199081169091556001600160a01b0385168085526003845282852080546000190190558785526002909352818420805490911690555192935084927fddf252ad1be2c89b69c2b068fc378daa952ba7f163c4a11628f55a4df523b3ef908390a45050565b60006001600160a01b0384163b1561172a57604051630a85bd0160e11b81526001600160a01b0385169063150b7a0290611678903390899088908890600401612046565b6020604051808303816000875af19250505080156116b3575060408051601f3d908101601f191682019092526116b091810190612083565b60015b611710573d8080156116e1576040519150601f19603f3d011682016040523d82523d6000602084013e6116e6565b606091505b5080516000036117085760405162461bcd60e51b815260040161046290611faf565b805181602001fd5b6001600160e01b031916630a85bd0160e11b14905061094d565b506001949350505050565b60606000611742836117c8565b600101905060008167ffffffffffffffff81111561176257611762611a98565b6040519080825280601f01601f19166020018201604052801561178c576020820181803683370190505b5090508181016020015b600019016f181899199a1a9b1b9c1cb0b131b232b360811b600a86061a8153600a850494508461179657509392505050565b60008072184f03e93ff9f4daa797ed6e38ed64bf6a1f0160401b83106118075772184f03e93ff9f4daa797ed6e38ed64bf6a1f0160401b830492506040015b6d04ee2d6d415b85acef81000000008310611833576d04ee2d6d415b85acef8100000000830492506020015b662386f26fc10000831061185157662386f26fc10000830492506010015b6305f5e1008310611869576305f5e100830492506008015b612710831061187d57612710830492506004015b6064831061188f576064830492506002015b600a831061032f5760010192915050565b5080546118ac90611d7b565b6000825580601f106118bc575050565b601f016020900490600052602060002090810190610d8d91905b808211156118ea57600081556001016118d6565b5090565b6001600160e01b031981168114610d8d57600080fd5b60006020828403121561191657600080fd5b813561120b816118ee565b60005b8381101561193c578181015183820152602001611924565b50506000910152565b6000815180845261195d816020860160208601611921565b601f01601f19169290920160200192915050565b60208152600061120b6020830184611945565b60006020828403121561199657600080fd5b5035919050565b80356001600160a01b03811681146119b457600080fd5b919050565b600080604083850312156119cc57600080fd5b6119d58361199d565b946020939093013593505050565b6000806000606084860312156119f857600080fd5b611a018461199d565b9250611a0f6020850161199d565b9150604084013590509250925092565b60008060408385031215611a3257600080fd5b50508035926020909101359150565b600060208284031215611a5357600080fd5b61120b8261199d565b60008060408385031215611a6f57600080fd5b611a788361199d565b915060208301358015158114611a8d57600080fd5b809150509250929050565b634e487b7160e01b600052604160045260246000fd5b600067ffffffffffffffff80841115611ac957611ac9611a98565b604051601f8501601f19908116603f01168101908282118183101715611af157611af1611a98565b81604052809350858152868686011115611b0a57600080fd5b858560208301376000602087830101525050509392505050565b60008060008060808587031215611b3a57600080fd5b611b438561199d565b9350611b516020860161199d565b925060408501359150606085013567ffffffffffffffff811115611b7457600080fd5b8501601f81018713611b8557600080fd5b611b9487823560208401611aae565b91505092959194509250565b600082601f830112611bb157600080fd5b61120b83833560208501611aae565b60008060008060008060c08789031215611bd957600080fd5b611be28761199d565b9550602087013567ffffffffffffffff80821115611bff57600080fd5b611c0b8a838b01611ba0565b96506040890135915060068210611c2157600080fd5b90945060608801359080821115611c3757600080fd5b611c438a838b01611ba0565b94506080890135935060a0890135915080821115611c6057600080fd5b50611c6d89828a01611ba0565b9150509295509295509295565b60008060408385031215611c8d57600080fd5b611c968361199d565b9150611ca46020840161199d565b90509250929050565b634e487b7160e01b600052602160045260246000fd5b60068110611ce157634e487b7160e01b600052602160045260246000fd5b9052565b602081528151602082015260006020830151610100806040850152611d0e610120850183611945565b91506040850151611d226060860182611cc3565b506060850151848303601f19016080860152611d3e8382611945565b925050608085015160a085015260018060a01b0360a08601511660c085015260c085015160e085015260e085015181850152508091505092915050565b600181811c90821680611d8f57607f821691505b602082108103611daf57634e487b7160e01b600052602260045260246000fd5b50919050565b6020808252602d908201527f4552433732313a2063616c6c6572206973206e6f7420746f6b656e206f776e6560408201526c1c881bdc88185c1c1c9bdd9959609a1b606082015260800190565b602080825260149082015273105cdcd95d08191bd95cc81b9bdd08195e1a5cdd60621b604082015260600190565b60008351611e42818460208801611921565b835190830190611e56818360208801611921565b01949350505050565b601f82111561050357600081815260208120601f850160051c81016020861015611e865750805b601f850160051c820191505b81811015611ea557828155600101611e92565b505050505050565b815167ffffffffffffffff811115611ec757611ec7611a98565b611edb81611ed58454611d7b565b84611e5f565b602080601f831160018114611f105760008415611ef85750858301515b600019600386901b1c1916600185901b178555611ea5565b600085815260208120601f198616915b82811015611f3f57888601518255948401946001909101908401611f20565b5085821015611f5d5787850151600019600388901b60f8161c191681555b5050505050600190811b01905550565b608081526000611f806080830187611945565b9050611f8f6020830186611cc3565b60408201939093526001600160a01b039190911660609091015292915050565b60208082526032908201527f4552433732313a207472616e7366657220746f206e6f6e20455243373231526560408201527131b2b4bb32b91034b6b83632b6b2b73a32b960711b606082015260800190565b60208082526025908201527f4552433732313a207472616e736665722066726f6d20696e636f72726563742060408201526437bbb732b960d91b606082015260800190565b6001600160a01b038581168252841660208201526040810183905260806060820181905260009061207990830184611945565b9695505050505050565b60006020828403121561209557600080fd5b815161120b816118ee56fea26469706673582212203e11e513bf1cbfa073c961e6c05bad7c8da049d19b192d52c8b1480b210c204464736f6c63430008110033",
  "linkReferences": {},
  "deployedLinkReferences": {}
}