{
  "_format": "hh-sol-artifact-1",
  "contractName": "FinTokenMarketplace",
  "sourceName": "contracts/FinTokenMarketplace.sol",
  "abi": [
    {
      "anonymous": false,
      "inputs": [
        {
          "indexed": true,
          "internalType": "uint256",
          "name": "listingId",
          "type": "uint256"
        }
      ],
      "name": "ListingCancelled",
      "type": "event"
    },
    {
      "anonymous": false,
      "inputs": [
        {
          "indexed": true,
          "internalType": "uint256",
          "name": "listingId",
          "type": "uint256"
        },
        {
          "indexed": true,
          "internalType": "uint256",
          "name": "tokenId",
          "type": "uint256"
        },
        {
          "indexed": true,
          "internalType": "address",
          "name": "seller",
          "type": "address"
        },
        {
          "indexed": false,
          "internalType": "uint256",
          "name": "price",
          "type": "uint256"
        }
      ],
      "name": "ListingCreated",
      "type": "event"
    },
    {
      "anonymous": false,
      "inputs": [
        {
          "indexed": true,
          "internalType": "uint256",
          "name": "listingId",
          "type": "uint256"
        },
        {
          "indexed": true,
          "internalType": "uint256",
          "name": "tokenId",
          "type": "uint256"
        },
        {
          "indexed": false,
          "internalType": "address",
          "name": "seller",
          "type": "address"
        },
        {
          "indexed": false,
          "internalType": "address",
          "name": "buyer",
          "type": "address"
        },
        {
          "indexed": false,
          "internalType": "uint256",
          "name": "price",
          "type": "uint256"
        }
      ],
      "name": "ListingSold",
      "type": "event"
    },
    {
      "anonymous": false,
      "inputs": [
        {
          "indexed": true,
          "internalType": "address",
          "name": "previousOwner",
          "type": "address"
        },
        {
          "indexed": true,
          "internalType": "address",
          "name": "newOwner",
          "type": "address"
        }
      ],
      "name": "OwnershipTransferred",
      "type": "event"
    },
    {
      "anonymous": false,
      "inputs": [
        {
          "indexed": false,
          "internalType": "uint256",
          "name": "oldFee",
          "type": "uint256"
        },
        {
          "indexed": false,
          "internalType": "uint256",
          "name": "newFee",
          "type": "uint256"
        }
      ],
      "name": "PlatformFeeUpdated",
      "type": "event"
    },
    {
      "inputs": [
        {
          "internalType": "uint256",
          "name": "listingId",
          "type": "uint256"
        }
      ],
      "name": "cancelListing",
      "outputs": [],
      "stateMutability": "nonpayable",
      "type": "function"
    },
    {
      "inputs": [
        {
          "internalType": "uint256",
          "name": "tokenId",
          "type": "uint256"
        },
        {
          "internalType": "address",
          "name": "tokenContract",
          "type": "address"
        },
        {
          "internalType": "uint256",
          "name": "price",
          "type": "uint256"
        }
      ],
      "name": "createListing",
      "outputs": [
        {
          "internalType": "uint256",
          "name": "",
          "type": "uint256"
        }
      ],
      "stateMutability": "nonpayable",
      "type": "function"
    },
    {
      "inputs": [
        {
          "internalType": "uint256",
          "name": "listingId",
          "type": "uint256"
        }
      ],
      "name": "getListing",
      "outputs": [
        {
          "components": [
            {
              "internalType": "uint256",
              "name": "tokenId",
              "type": "uint256"
            },
            {
              "internalType": "address",
              "name": "seller",
              "type": "address"
            },
            {
              "internalType": "address",
              "name": "tokenContract",
              "type": "address"
            },
            {
              "internalType": "uint256",
              "name": "price",
              "type": "uint256"
            },
            {
              "internalType": "bool",
              "name": "active",
              "type": "bool"
            },
            {
              "internalType": "uint256",
              "name": "createdAt",
              "type": "uint256"
            }
          ],
          "internalType": "struct FinTokenMarketplace.Listing",
          "name": "",
          "type": "tuple"
        }
      ],
      "stateMutability": "view",
      "type": "function"
    },
    {
      "inputs": [],
      "name": "owner",
      "outputs": [
        {
          "internalType": "address",
          "name": "",
          "type": "address"
        }
      ],
      "stateMutability": "view",
      "type": "function"
    },
    {
      "inputs": [],
      "name": "platformFeePercentage",
      "outputs": [
        {
          "internalType": "uint256",
          "name": "",
          "type": "uint256"
        }
      ],
      "stateMutability": "view",
      "type": "function"
    },
    {
      "inputs": [
        {
          "internalType": "uint256",
          "name": "listingId",
          "type": "uint256"
        }
      ],
      "name": "purchaseListing",
      "outputs": [],
      "stateMutability": "payable",
      "type": "function"
    },
    {
      "inputs": [],
      "name": "renounceOwnership",
      "outputs": [],
      "stateMutability": "nonpayable",
      "type": "function"
    },
    {
      "inputs": [
        {
          "internalType": "address",
          "name": "newOwner",
          "type": "address"
        }
      ],
      "name": "transferOwnership",
      "outputs": [],
      "stateMutability": "nonpayable",
      "type": "function"
    },
    {
      "inputs": [
        {
          "internalType": "uint256",
          "name": "newFeePercentage",
          "type": "uint256"
        }
      ],
      "name": "updatePlatformFee",
      "outputs": [],
      "stateMutability": "nonpayable",
      "type": "function"
    }
  ],
  "bytecode": "0x608060405260fa60045534801561001557600080fd5b50600160005561002433610029565b61007b565b600180546001600160a01b038381166001600160a01b0319831681179093556040519116919082907f8be0079c531659141344cd1fd0a4f28419497f9722a3daafe3b4186f6b6457e090600090a35050565b610b938061008a6000396000f3fe6080604052600436106100865760003560e01c8063715018a611610059578063715018a6146102025780638da5cb5b14610217578063aa0b59881461023f578063cdd78cfc1461025f578063f2fde38b1461027557600080fd5b8063107a274a1461008b578063169d5a7d1461019f578063305a67a8146101b457806365c11bf0146101d4575b600080fd5b34801561009757600080fd5b506101436100a6366004610a1a565b6040805160c081018252600080825260208201819052918101829052606081018290526080810182905260a081019190915250600090815260026020818152604092839020835160c0810185528154815260018201546001600160a01b0390811693820193909352928101549091169282019290925260038201546060820152600482015460ff161515608082015260059091015460a082015290565b60408051825181526020808401516001600160a01b03908116918301919091528383015116918101919091526060808301519082015260808083015115159082015260a0918201519181019190915260c0015b60405180910390f35b6101b26101ad366004610a1a565b610295565b005b3480156101c057600080fd5b506101b26101cf366004610a1a565b610416565b3480156101e057600080fd5b506101f46101ef366004610a48565b610528565b604051908152602001610196565b34801561020e57600080fd5b506101b26107fd565b34801561022357600080fd5b506001546040516001600160a01b039091168152602001610196565b34801561024b57600080fd5b506101b261025a366004610a1a565b610811565b34801561026b57600080fd5b506101f460045481565b34801561028157600080fd5b506101b2610290366004610a80565b61089f565b61029d610915565b6000818152600260205260409020600481015460ff166102f95760405162461bcd60e51b81526020600482015260126024820152714c697374696e67206e6f742061637469766560701b60448201526064015b60405180910390fd5b600061271060045483600301546103109190610ab3565b61031a9190610ad0565b9050600081836003015461032e9190610af2565b6002840154600185015485546040516323b872dd60e01b81526001600160a01b039283166004820152336024820152604481019190915292935016906323b872dd90606401600060405180830381600087803b15801561038d57600080fd5b505af11580156103a1573d6000803e3d6000fd5b5050505060048301805460ff19169055825460018401546003850154604080516001600160a01b03909316835233602084015282015285907f57ad21c878eba5fcc454fff36891186036413f92cf3dc39e977de44a87abd6269060600160405180910390a35050506104136001600055565b50565b61041e610915565b6000818152600260205260409020600481015460ff166104755760405162461bcd60e51b81526020600482015260126024820152714c697374696e67206e6f742061637469766560701b60448201526064016102f0565b60018101546001600160a01b03163314806104a957503361049e6001546001600160a01b031690565b6001600160a01b0316145b6104e65760405162461bcd60e51b815260206004820152600e60248201526d139bdd08185d5d1a1bdc9a5e995960921b60448201526064016102f0565b60048101805460ff1916905560405182907f411aee90354c51b1b04cd563fcab2617142a9d50da19232d888547c8a1b7fd8a90600090a2506104136001600055565b6000610532610915565b600082116105825760405162461bcd60e51b815260206004820152601f60248201527f5072696365206d7573742062652067726561746572207468616e207a65726f0060448201526064016102f0565b6040516331a9108f60e11b81526004810185905233906001600160a01b03851690636352211e90602401602060405180830381865afa1580156105c9573d6000803e3d6000fd5b505050506040513d601f19601f820116820180604052508101906105ed9190610b05565b6001600160a01b0316146106335760405162461bcd60e51b815260206004820152600d60248201526c2737ba103a34329037bbb732b960991b60448201526064016102f0565b60405163e985e9c560e01b81523360048201523060248201526001600160a01b0384169063e985e9c590604401602060405180830381865afa15801561067d573d6000803e3d6000fd5b505050506040513d601f19601f820116820180604052508101906106a19190610b22565b6106ed5760405162461bcd60e51b815260206004820152601860248201527f4d61726b6574706c616365206e6f7420617070726f766564000000000000000060448201526064016102f0565b600380549060006106fd83610b44565b9091555050600380546040805160c0810182528781523360208083018281526001600160a01b038a8116858701908152606086018b81526001608088018181524260a08a0190815260008c81526002988990528b902099518a55955191890180549286166001600160a01b031993841617905592519588018054969094169516949094179091559151968401969096555160048301805491151560ff19909216919091179055935160059091015551909190869083907f8093adc67e6531e4dcb9f96fe66947096b91ad10573e8136f8ef1a1cebe2fad6906107e29088815260200190565b60405180910390a490506107f66001600055565b9392505050565b61080561096e565b61080f60006109c8565b565b61081961096e565b6103e881111561085a5760405162461bcd60e51b815260206004820152600c60248201526b08ccaca40e8dede40d0d2ced60a31b60448201526064016102f0565b600480549082905560408051828152602081018490527fd347e206f25a89b917fc9482f1a2d294d749baa4dc9bde7fb495ee11fe491643910160405180910390a15050565b6108a761096e565b6001600160a01b03811661090c5760405162461bcd60e51b815260206004820152602660248201527f4f776e61626c653a206e6577206f776e657220697320746865207a65726f206160448201526564647265737360d01b60648201526084016102f0565b610413816109c8565b6002600054036109675760405162461bcd60e51b815260206004820152601f60248201527f5265656e7472616e637947756172643a207265656e7472616e742063616c6c0060448201526064016102f0565b6002600055565b6001546001600160a01b0316331461080f5760405162461bcd60e51b815260206004820181905260248201527f4f776e61626c653a2063616c6c6572206973206e6f7420746865206f776e657260448201526064016102f0565b600180546001600160a01b038381166001600160a01b0319831681179093556040519116919082907f8be0079c531659141344cd1fd0a4f28419497f9722a3daafe3b4186f6b6457e090600090a35050565b600060208284031215610a2c57600080fd5b5035919050565b6001600160a01b038116811461041357600080fd5b600080600060608486031215610a5d57600080fd5b833592506020840135610a6f81610a33565b929592945050506040919091013590565b600060208284031215610a9257600080fd5b81356107f681610a33565b634e487b7160e01b600052601160045260246000fd5b8082028115828204841417610aca57610aca610a9d565b92915050565b600082610aed57634e487b7160e01b600052601260045260246000fd5b500490565b81810381811115610aca57610aca610a9d565b600060208284031215610b1757600080fd5b81516107f681610a33565b600060208284031215610b3457600080fd5b815180151581146107f657600080fd5b600060018201610b5657610b56610a9d565b506001019056fea2646970667358221220bcfb97d81189dc1a2865959d46363a27a836965689d95f90f5b2150235454cd864736f6c63430008110033",
  "linkReferences": {},
  "deployedLinkReferences": {}
}